S00E0000386963686C632E73726563DB
S113000009C036C06CC01FC01EC01DC01CC01BC0B0
S11300101AC019C011241FBECFE9CDBF10E0A0E65D
S1130020B0E0E6EDF1E002C005900D92A236B10712
S1130030D9F720E0A2E6B0E001C01D92A436B207D1
S1130040E1F77ED0C6C0DCCFE199FECF1CBA8EBBEF
S11300506DBB8CB384608CBB8CB382608CBB089505
S1130060E199FECF8EBB8CB381608CBB8DB30895B8
S11300701F920F920FB60F9211242F933F934F9319
S11300805F936F937F938F939F93AF93BF93EF93FC
S1130090FF93B49B08C08091630018165CF48150F0
S11300A08093630007C0809163008C341CF48F5FDD
S11300B0809363006091630080E0C6DFFF91EF915D
S11300C0BF91AF919F918F917F916F915F914F916C
S11300D03F912F910F900FBE0F901F9018951F9274
S11300E00F920FB60F9211242F933F934F935F9368
S11300F06F937F938F939F93AF93BF93EF93FF93EC
S1130100B29B03C081E080936000B29B10926000B8
S1130110B09905C01092630060E080E095DFFF9124
S1130120EF91BF91AF919F918F917F916F915F916B
S11301304F913F912F910F900FBE0F901F901895E4
S1130140F89482E085BF85E085BB83E085BD88E0C7
S113015087BB8FE188BB80E68BBF789480E080DF2B
S113016080936300B59B03C081E08093620080911B
S11301706200882371F0813039F5809163008A32FE
S113018024F488B3877F88BB1FC088B3886088BB8A
S11301901BC08091600081110CC0809163008C327F
S11301A024F488B3877F88BB0FC088B3886088BB7A
S11301B00BC0809163008C3324F488B3877F88BBA1
S11301C003C088B3886088BB80EF90E00197F1F7A3
S10901D0CECFF894FFCF2E
S10501D6010022
S9030000FC
