S00E0000386963686C632E73726563DB
S113000009C030C062C01FC01EC01DC01CC01BC0C0
S11300101AC019C011241FBECFE9CDBF10E0A0E65D
S1130020B0E0EAE9F1E002C005900D92A236B10712
S1130030D9F720E0A2E6B0E001C01D92A436B207D1
S1130040E1F774D0A8C0DCCFE199FECF1CBA8EBB17
S11300506DBBE29AE19A0895E199FECF8EBBE09AD6
S11300608DB308951F920F920FB60F9211242F9300
S11300703F934F935F936F937F938F939F93AF932C
S1130080BF93EF93FF9380916300B49B04C0181651
S11300903CF4815003C08C341CF48F5F8093630064
S11300A06091630080E0D0DFFF91EF91BF91AF9149
S11300B09F918F917F916F915F914F913F912F917C
S11300C00F900FBE0F901F9018951F920F920FB6AE
S11300D00F9211242F933F934F935F936F937F93CA
S11300E08F939F93AF93BF93EF93FF93B29B03C000
S11300F081E080936000B29B10926000B09905C0CB
S11301001092630060E080E09FDFFF91EF91BF9168
S1130110AF919F918F917F916F915F914F913F919B
S11301202F910F900FBE0F901F901895F89482E0B6
S113013085BF85E085BB83E085BD88E087BB8FE113
S113014088BB80E68BBF789480E086DF8093630071
S1130150B59B03C081E08093620080916200882394
S113016039F0813099F4809163008A3274F40BC0C1
S11301709091600080916300911103C08C322CF443
S113018002C08C3314F4C39801C0C39A80EF90E08A
S10D01900197F1F7E2CFF894FFCFD6
S105019A01005E
S9030000FC
